:1000DC000808A3544BFC48FC4B4808107FBFDFEFCB
:0400EC00F7FBFDFE23
:0B00F100EF1FAC0670011E4C70F622E1
:1000B600C2B6C2B5E4FEEFC4131313540124FF9273
:1000C600B4EF25E0FFD2B60000C2B60EBE08E7D2F6
:0600D600B50000C2B522D6
:10008F0075807FE4FD74102DF8E6F58074082DF867
:10009F00E6FF1200B67F647E001200F1E4FF12004B
:0700AF00B60DBD08E080D989
:03000000020003F8
:0C000300787FE4F6D8FD75811702004AF2
:10000F0002008FE493A3F8E493A34003F68001F278
:10001F0008DFF48029E493A3F85407240CC8C333F2
:10002F00C4540F4420C8834004F456800146F6DFC1
:10003F00E4800B01020408102040809000DCE47E75
:10004F00019360BCA3FF543F30E509541FFEE493B6
:10005F00A360010ECF54C025E060A840B8E493A37D
:10006F00FAE493A3F8E493A3C8C582C8CAC583CAA8
:10007F00F0A3C8C582C8CAC583CADFE9DEE780BE60
:0100F000000F
:00000001FF
