:10000300E4F508E4F508E5085401FF12008B7F01CD
:1000130012005B0508E508B405EC75A0FE7F01122C
:10002300005BE4F508AFA07801EF08800123D8FD59
:1000330012007A0508E508C3940740E9E4F508E5EA
:1000430008C3940750BDAFA07801EF08800103D81F
:08005300FD12007A050880E7A8
:06007A00F5A07F507EC3DB
:0B008000EF1FAC0670011E4C70F62252
:10005B00AD07AF051DEF601612007C7F887E131273
:0F006B00008012007C7F887E1312008080E422C8
:0C008B00EF24FF92A092A292A492A62261
:0300000002009764
:0C009700787FE4F6D8FD758108020003B4
:00000001FF
